{
  "abi": [
    {
      "inputs": [
        {
          "internalType": "uint256",
          "name": "a",
          "type": "uint256"
        },
        {
          "internalType": "uint256",
          "name": "b",
          "type": "uint256"
        }
      ],
      "name": "add",
      "outputs": [
        {
          "internalType": "uint256",
          "name": "",
          "type": "uint256"
        }
      ],
      "stateMutability": "nonpayable",
      "type": "function"
    },
    {
      "inputs": [
        {
          "internalType": "uint256",
          "name": "a",
          "type": "uint256"
        },
        {
          "internalType": "uint256",
          "name": "b",
          "type": "uint256"
        }
      ],
      "name": "div",
      "outputs": [
        {
          "internalType": "uint256",
          "name": "",
          "type": "uint256"
        }
      ],
      "stateMutability": "nonpayable",
      "type": "function"
    },
    {
      "inputs": [],
      "name": "getResult",
      "outputs": [
        {
          "internalType": "uint256",
          "name": "",
          "type": "uint256"
        }
      ],
      "stateMutability": "view",
      "type": "function"
    },
    {
      "inputs": [
        {
          "internalType": "uint256",
          "name": "a",
          "type": "uint256"
        },
        {
          "internalType": "uint256",
          "name": "b",
          "type": "uint256"
        }
      ],
      "name": "min",
      "outputs": [
        {
          "internalType": "uint256",
          "name": "",
          "type": "uint256"
        }
      ],
      "stateMutability": "nonpayable",
      "type": "function"
    },
    {
      "inputs": [
        {
          "internalType": "uint256",
          "name": "a",
          "type": "uint256"
        },
        {
          "internalType": "uint256",
          "name": "b",
          "type": "uint256"
        }
      ],
      "name": "mul",
      "outputs": [
        {
          "internalType": "uint256",
          "name": "",
          "type": "uint256"
        }
      ],
      "stateMutability": "nonpayable",
      "type": "function"
    }
  ],
  "devdoc": {
    "details": "Store & retrieve value in a variable",
    "kind": "dev",
    "methods": {},
    "title": "Storage",
    "version": 1
  },
  "evm": {
    "assembly": "    /* \"Storage.sol\":163:848  contract Storage {... */\n  mstore(0x40, 0x80)\n  callvalue\n  dup1\n  iszero\n  tag_1\n  jumpi\n  0x00\n  dup1\n  revert\ntag_1:\n  pop\n  dataSize(sub_0)\n  dup1\n  dataOffset(sub_0)\n  0x00\n  codecopy\n  0x00\n  return\nstop\n\nsub_0: assembly {\n        /* \"Storage.sol\":163:848  contract Storage {... */\n      mstore(0x40, 0x80)\n      callvalue\n      dup1\n      iszero\n      tag_1\n      jumpi\n      0x00\n      dup1\n      revert\n    tag_1:\n      pop\n      jumpi(tag_2, lt(calldatasize, 0x04))\n      shr(0xe0, calldataload(0x00))\n      dup1\n      0x771602f7\n      eq\n      tag_3\n      jumpi\n      dup1\n      0x7ae2b5c7\n      eq\n      tag_4\n      jumpi\n      dup1\n      0xa391c15b\n      eq\n      tag_5\n      jumpi\n      dup1\n      0xc8a4ac9c\n      eq\n      tag_6\n      jumpi\n      dup1\n      0xde292789\n      eq\n      tag_7\n      jumpi\n    tag_2:\n      0x00\n      dup1\n      revert\n        /* \"Storage.sol\":257:374  function add(uint256 a, uint256 b) public returns (uint256) {... */\n    tag_3:\n      tag_8\n      0x04\n      dup1\n      calldatasize\n      sub\n      0x40\n      dup2\n      lt\n      iszero\n      tag_9\n      jumpi\n      0x00\n      dup1\n      revert\n    tag_9:\n      dup2\n      add\n      swap1\n      dup1\n      dup1\n      calldataload\n      swap1\n      0x20\n      add\n      swap1\n      swap3\n      swap2\n      swap1\n      dup1\n      calldataload\n      swap1\n      0x20\n      add\n      swap1\n      swap3\n      swap2\n      swap1\n      pop\n      pop\n      pop\n      tag_10\n      jump\t// in\n    tag_8:\n      mload(0x40)\n      dup1\n      dup3\n      dup2\n      mstore\n      0x20\n      add\n      swap2\n      pop\n      pop\n      mload(0x40)\n      dup1\n      swap2\n      sub\n      swap1\n      return\n        /* \"Storage.sol\":384:501  function min(uint256 a, uint256 b) public returns (uint256) {... */\n    tag_4:\n      tag_11\n      0x04\n      dup1\n      calldatasize\n      sub\n      0x40\n      dup2\n      lt\n      iszero\n      tag_12\n      jumpi\n      0x00\n      dup1\n      revert\n    tag_12:\n      dup2\n      add\n      swap1\n      dup1\n      dup1\n      calldataload\n      swap1\n      0x20\n      add\n      swap1\n      swap3\n      swap2\n      swap1\n      dup1\n      calldataload\n      swap1\n      0x20\n      add\n      swap1\n      swap3\n      swap2\n      swap1\n      pop\n      pop\n      pop\n      tag_13\n      jump\t// in\n    tag_11:\n      mload(0x40)\n      dup1\n      dup3\n      dup2\n      mstore\n      0x20\n      add\n      swap2\n      pop\n      pop\n      mload(0x40)\n      dup1\n      swap2\n      sub\n      swap1\n      return\n        /* \"Storage.sol\":638:755  function div(uint256 a, uint256 b) public returns (uint256) {... */\n    tag_5:\n      tag_14\n      0x04\n      dup1\n      calldatasize\n      sub\n      0x40\n      dup2\n      lt\n      iszero\n      tag_15\n      jumpi\n      0x00\n      dup1\n      revert\n    tag_15:\n      dup2\n      add\n      swap1\n      dup1\n      dup1\n      calldataload\n      swap1\n      0x20\n      add\n      swap1\n      swap3\n      swap2\n      swap1\n      dup1\n      calldataload\n      swap1\n      0x20\n      add\n      swap1\n      swap3\n      swap2\n      swap1\n      pop\n      pop\n      pop\n      tag_16\n      jump\t// in\n    tag_14:\n      mload(0x40)\n      dup1\n      dup3\n      dup2\n      mstore\n      0x20\n      add\n      swap2\n      pop\n      pop\n      mload(0x40)\n      dup1\n      swap2\n      sub\n      swap1\n      return\n        /* \"Storage.sol\":511:628  function mul(uint256 a, uint256 b) public returns (uint256) {... */\n    tag_6:\n      tag_17\n      0x04\n      dup1\n      calldatasize\n      sub\n      0x40\n      dup2\n      lt\n      iszero\n      tag_18\n      jumpi\n      0x00\n      dup1\n      revert\n    tag_18:\n      dup2\n      add\n      swap1\n      dup1\n      dup1\n      calldataload\n      swap1\n      0x20\n      add\n      swap1\n      swap3\n      swap2\n      swap1\n      dup1\n      calldataload\n      swap1\n      0x20\n      add\n      swap1\n      swap3\n      swap2\n      swap1\n      pop\n      pop\n      pop\n      tag_19\n      jump\t// in\n    tag_17:\n      mload(0x40)\n      dup1\n      dup3\n      dup2\n      mstore\n      0x20\n      add\n      swap2\n      pop\n      pop\n      mload(0x40)\n      dup1\n      swap2\n      sub\n      swap1\n      return\n        /* \"Storage.sol\":765:846  function getResult() public view returns (uint256) {... */\n    tag_7:\n      tag_20\n      tag_21\n      jump\t// in\n    tag_20:\n      mload(0x40)\n      dup1\n      dup3\n      dup2\n      mstore\n      0x20\n      add\n      swap2\n      pop\n      pop\n      mload(0x40)\n      dup1\n      swap2\n      sub\n      swap1\n      return\n        /* \"Storage.sol\":257:374  function add(uint256 a, uint256 b) public returns (uint256) {... */\n    tag_10:\n        /* \"Storage.sol\":308:315  uint256 */\n      0x00\n        /* \"Storage.sol\":336:344  a.add(b) */\n      tag_23\n        /* \"Storage.sol\":342:343  b */\n      dup3\n        /* \"Storage.sol\":336:337  a */\n      dup5\n        /* \"Storage.sol\":336:341  a.add */\n      tag_24\n      swap1\n        /* \"Storage.sol\":336:344  a.add(b) */\n      swap2\n      swap1\n      0xffffffff\n      and\n      jump\t// in\n    tag_23:\n        /* \"Storage.sol\":327:333  result */\n      0x00\n        /* \"Storage.sol\":327:344  result = a.add(b) */\n      dup2\n      swap1\n      sstore\n      pop\n        /* \"Storage.sol\":361:367  result */\n      sload(0x00)\n        /* \"Storage.sol\":354:367  return result */\n      swap1\n      pop\n        /* \"Storage.sol\":257:374  function add(uint256 a, uint256 b) public returns (uint256) {... */\n      swap3\n      swap2\n      pop\n      pop\n      jump\t// out\n        /* \"Storage.sol\":384:501  function min(uint256 a, uint256 b) public returns (uint256) {... */\n    tag_13:\n        /* \"Storage.sol\":435:442  uint256 */\n      0x00\n        /* \"Storage.sol\":463:471  a.sub(b) */\n      tag_26\n        /* \"Storage.sol\":469:470  b */\n      dup3\n        /* \"Storage.sol\":463:464  a */\n      dup5\n        /* \"Storage.sol\":463:468  a.sub */\n      tag_27\n      swap1\n        /* \"Storage.sol\":463:471  a.sub(b) */\n      swap2\n      swap1\n      0xffffffff\n      and\n      jump\t// in\n    tag_26:\n        /* \"Storage.sol\":454:460  result */\n      0x00\n        /* \"Storage.sol\":454:471  result = a.sub(b) */\n      dup2\n      swap1\n      sstore\n      pop\n        /* \"Storage.sol\":488:494  result */\n      sload(0x00)\n        /* \"Storage.sol\":481:494  return result */\n      swap1\n      pop\n        /* \"Storage.sol\":384:501  function min(uint256 a, uint256 b) public returns (uint256) {... */\n      swap3\n      swap2\n      pop\n      pop\n      jump\t// out\n        /* \"Storage.sol\":638:755  function div(uint256 a, uint256 b) public returns (uint256) {... */\n    tag_16:\n        /* \"Storage.sol\":689:696  uint256 */\n      0x00\n        /* \"Storage.sol\":717:725  a.div(b) */\n      tag_29\n        /* \"Storage.sol\":723:724  b */\n      dup3\n        /* \"Storage.sol\":717:718  a */\n      dup5\n        /* \"Storage.sol\":717:722  a.div */\n      tag_30\n      swap1\n        /* \"Storage.sol\":717:725  a.div(b) */\n      swap2\n      swap1\n      0xffffffff\n      and\n      jump\t// in\n    tag_29:\n        /* \"Storage.sol\":708:714  result */\n      0x00\n        /* \"Storage.sol\":708:725  result = a.div(b) */\n      dup2\n      swap1\n      sstore\n      pop\n        /* \"Storage.sol\":742:748  result */\n      sload(0x00)\n        /* \"Storage.sol\":735:748  return result */\n      swap1\n      pop\n        /* \"Storage.sol\":638:755  function div(uint256 a, uint256 b) public returns (uint256) {... */\n      swap3\n      swap2\n      pop\n      pop\n      jump\t// out\n        /* \"Storage.sol\":511:628  function mul(uint256 a, uint256 b) public returns (uint256) {... */\n    tag_19:\n        /* \"Storage.sol\":562:569  uint256 */\n      0x00\n        /* \"Storage.sol\":590:598  a.mul(b) */\n      tag_32\n        /* \"Storage.sol\":596:597  b */\n      dup3\n        /* \"Storage.sol\":590:591  a */\n      dup5\n        /* \"Storage.sol\":590:595  a.mul */\n      tag_33\n      swap1\n        /* \"Storage.sol\":590:598  a.mul(b) */\n      swap2\n      swap1\n      0xffffffff\n      and\n      jump\t// in\n    tag_32:\n        /* \"Storage.sol\":581:587  result */\n      0x00\n        /* \"Storage.sol\":581:598  result = a.mul(b) */\n      dup2\n      swap1\n      sstore\n      pop\n        /* \"Storage.sol\":615:621  result */\n      sload(0x00)\n        /* \"Storage.sol\":608:621  return result */\n      swap1\n      pop\n        /* \"Storage.sol\":511:628  function mul(uint256 a, uint256 b) public returns (uint256) {... */\n      swap3\n      swap2\n      pop\n      pop\n      jump\t// out\n        /* \"Storage.sol\":765:846  function getResult() public view returns (uint256) {... */\n    tag_21:\n        /* \"Storage.sol\":807:814  uint256 */\n      0x00\n        /* \"Storage.sol\":833:839  result */\n      dup1\n      sload\n        /* \"Storage.sol\":826:839  return result */\n      swap1\n      pop\n        /* \"Storage.sol\":765:846  function getResult() public view returns (uint256) {... */\n      swap1\n      jump\t// out\n        /* \"SafeMath.sol\":875:1051   */\n    tag_24:\n        /* \"SafeMath.sol\":933:940   */\n      0x00\n        /* \"SafeMath.sol\":952:961   */\n      dup1\n        /* \"SafeMath.sol\":968:969   */\n      dup3\n        /* \"SafeMath.sol\":964:965   */\n      dup5\n        /* \"SafeMath.sol\":964:969   */\n      add\n        /* \"SafeMath.sol\":952:969   */\n      swap1\n      pop\n        /* \"SafeMath.sol\":992:993   */\n      dup4\n        /* \"SafeMath.sol\":987:988   */\n      dup2\n        /* \"SafeMath.sol\":987:993   */\n      lt\n      iszero\n        /* \"SafeMath.sol\":979:1025   */\n      tag_36\n      jumpi\n      mload(0x40)\n      0x08c379a000000000000000000000000000000000000000000000000000000000\n      dup2\n      mstore\n      0x04\n      add\n      dup1\n      dup1\n      0x20\n      add\n      dup3\n      dup2\n      sub\n      dup3\n      mstore\n      0x1b\n      dup2\n      mstore\n      0x20\n      add\n      dup1\n      0x536166654d6174683a206164646974696f6e206f766572666c6f770000000000\n      dup2\n      mstore\n      pop\n      0x20\n      add\n      swap2\n      pop\n      pop\n      mload(0x40)\n      dup1\n      swap2\n      sub\n      swap1\n      revert\n    tag_36:\n        /* \"SafeMath.sol\":1043:1044   */\n      dup1\n        /* \"SafeMath.sol\":1036:1044   */\n      swap2\n      pop\n      pop\n        /* \"SafeMath.sol\":875:1051   */\n      swap3\n      swap2\n      pop\n      pop\n      jump\t// out\n        /* \"SafeMath.sol\":1315:1449   */\n    tag_27:\n        /* \"SafeMath.sol\":1373:1380   */\n      0x00\n        /* \"SafeMath.sol\":1399:1442   */\n      tag_38\n        /* \"SafeMath.sol\":1403:1404   */\n      dup4\n        /* \"SafeMath.sol\":1406:1407   */\n      dup4\n        /* \"SafeMath.sol\":1399:1442   */\n      mload(0x40)\n      dup1\n      0x40\n      add\n      0x40\n      mstore\n      dup1\n      0x1e\n      dup2\n      mstore\n      0x20\n      add\n      0x536166654d6174683a207375627472616374696f6e206f766572666c6f770000\n      dup2\n      mstore\n      pop\n        /* \"SafeMath.sol\":1399:1402   */\n      tag_39\n        /* \"SafeMath.sol\":1399:1442   */\n      jump\t// in\n    tag_38:\n        /* \"SafeMath.sol\":1392:1442   */\n      swap1\n      pop\n        /* \"SafeMath.sol\":1315:1449   */\n      swap3\n      swap2\n      pop\n      pop\n      jump\t// out\n        /* \"SafeMath.sol\":3074:3204   */\n    tag_30:\n        /* \"SafeMath.sol\":3132:3139   */\n      0x00\n        /* \"SafeMath.sol\":3158:3197   */\n      tag_41\n        /* \"SafeMath.sol\":3162:3163   */\n      dup4\n        /* \"SafeMath.sol\":3165:3166   */\n      dup4\n        /* \"SafeMath.sol\":3158:3197   */\n      mload(0x40)\n      dup1\n      0x40\n      add\n      0x40\n      mstore\n      dup1\n      0x1a\n      dup2\n      mstore\n      0x20\n      add\n      0x536166654d6174683a206469766973696f6e206279207a65726f000000000000\n      dup2\n      mstore\n      pop\n        /* \"SafeMath.sol\":3158:3161   */\n      tag_42\n        /* \"SafeMath.sol\":3158:3197   */\n      jump\t// in\n    tag_41:\n        /* \"SafeMath.sol\":3151:3197   */\n      swap1\n      pop\n        /* \"SafeMath.sol\":3074:3204   */\n      swap3\n      swap2\n      pop\n      pop\n      jump\t// out\n        /* \"SafeMath.sol\":2160:2619   */\n    tag_33:\n        /* \"SafeMath.sol\":2218:2225   */\n      0x00\n        /* \"SafeMath.sol\":2464:2465   */\n      dup1\n        /* \"SafeMath.sol\":2459:2460   */\n      dup4\n        /* \"SafeMath.sol\":2459:2465   */\n      eq\n        /* \"SafeMath.sol\":2455:2500   */\n      iszero\n      tag_44\n      jumpi\n        /* \"SafeMath.sol\":2488:2489   */\n      0x00\n        /* \"SafeMath.sol\":2481:2489   */\n      swap1\n      pop\n      jump(tag_43)\n        /* \"SafeMath.sol\":2455:2500   */\n    tag_44:\n        /* \"SafeMath.sol\":2510:2519   */\n      0x00\n        /* \"SafeMath.sol\":2526:2527   */\n      dup3\n        /* \"SafeMath.sol\":2522:2523   */\n      dup5\n        /* \"SafeMath.sol\":2522:2527   */\n      mul\n        /* \"SafeMath.sol\":2510:2527   */\n      swap1\n      pop\n        /* \"SafeMath.sol\":2554:2555   */\n      dup3\n        /* \"SafeMath.sol\":2549:2550   */\n      dup5\n        /* \"SafeMath.sol\":2545:2546   */\n      dup3\n        /* \"SafeMath.sol\":2545:2550   */\n      dup2\n      tag_45\n      jumpi\n      invalid\n    tag_45:\n      div\n        /* \"SafeMath.sol\":2545:2555   */\n      eq\n        /* \"SafeMath.sol\":2537:2593   */\n      tag_46\n      jumpi\n      mload(0x40)\n      0x08c379a000000000000000000000000000000000000000000000000000000000\n      dup2\n      mstore\n      0x04\n      add\n      dup1\n      dup1\n      0x20\n      add\n      dup3\n      dup2\n      sub\n      dup3\n      mstore\n      0x21\n      dup2\n      mstore\n      0x20\n      add\n      dup1\n      data_9113bb53c2876a3805b2c9242029423fc540a728243ce887ab24c82cf119fba3\n      0x21\n      swap2\n      codecopy\n      0x40\n      add\n      swap2\n      pop\n      pop\n      mload(0x40)\n      dup1\n      swap2\n      sub\n      swap1\n      revert\n    tag_46:\n        /* \"SafeMath.sol\":2611:2612   */\n      dup1\n        /* \"SafeMath.sol\":2604:2612   */\n      swap2\n      pop\n      pop\n        /* \"SafeMath.sol\":2160:2619   */\n    tag_43:\n      swap3\n      swap2\n      pop\n      pop\n      jump\t// out\n        /* \"SafeMath.sol\":1733:1920   */\n    tag_39:\n        /* \"SafeMath.sol\":1819:1826   */\n      0x00\n        /* \"SafeMath.sol\":1851:1852   */\n      dup4\n        /* \"SafeMath.sol\":1846:1847   */\n      dup4\n        /* \"SafeMath.sol\":1846:1852   */\n      gt\n      iszero\n        /* \"SafeMath.sol\":1854:1866   */\n      dup3\n        /* \"SafeMath.sol\":1838:1867   */\n      swap1\n      tag_48\n      jumpi\n      mload(0x40)\n      0x08c379a000000000000000000000000000000000000000000000000000000000\n      dup2\n      mstore\n      0x04\n      add\n      dup1\n      dup1\n      0x20\n      add\n      dup3\n      dup2\n      sub\n      dup3\n      mstore\n      dup4\n      dup2\n      dup2\n      mload\n      dup2\n      mstore\n      0x20\n      add\n      swap2\n      pop\n      dup1\n      mload\n      swap1\n      0x20\n      add\n      swap1\n      dup1\n      dup4\n      dup4\n      0x00\n    tag_49:\n      dup4\n      dup2\n      lt\n      iszero\n      tag_51\n      jumpi\n      dup1\n      dup3\n      add\n      mload\n      dup2\n      dup5\n      add\n      mstore\n      0x20\n      dup2\n      add\n      swap1\n      pop\n      jump(tag_49)\n    tag_51:\n      pop\n      pop\n      pop\n      pop\n      swap1\n      pop\n      swap1\n      dup2\n      add\n      swap1\n      0x1f\n      and\n      dup1\n      iszero\n      tag_52\n      jumpi\n      dup1\n      dup3\n      sub\n      dup1\n      mload\n      0x01\n      dup4\n      0x20\n      sub\n      0x0100\n      exp\n      sub\n      not\n      and\n      dup2\n      mstore\n      0x20\n      add\n      swap2\n      pop\n    tag_52:\n      pop\n      swap3\n      pop\n      pop\n      pop\n      mload(0x40)\n      dup1\n      swap2\n      sub\n      swap1\n      revert\n    tag_48:\n      pop\n        /* \"SafeMath.sol\":1877:1886   */\n      0x00\n        /* \"SafeMath.sol\":1893:1894   */\n      dup4\n        /* \"SafeMath.sol\":1889:1890   */\n      dup6\n        /* \"SafeMath.sol\":1889:1894   */\n      sub\n        /* \"SafeMath.sol\":1877:1894   */\n      swap1\n      pop\n        /* \"SafeMath.sol\":1912:1913   */\n      dup1\n        /* \"SafeMath.sol\":1905:1913   */\n      swap2\n      pop\n      pop\n        /* \"SafeMath.sol\":1733:1920   */\n      swap4\n      swap3\n      pop\n      pop\n      pop\n      jump\t// out\n        /* \"SafeMath.sol\":3679:4017   */\n    tag_42:\n        /* \"SafeMath.sol\":3765:3772   */\n      0x00\n        /* \"SafeMath.sol\":3862:3863   */\n      dup1\n        /* \"SafeMath.sol\":3858:3859   */\n      dup4\n        /* \"SafeMath.sol\":3858:3863   */\n      gt\n        /* \"SafeMath.sol\":3865:3877   */\n      dup3\n        /* \"SafeMath.sol\":3850:3878   */\n      swap1\n      tag_54\n      jumpi\n      mload(0x40)\n      0x08c379a000000000000000000000000000000000000000000000000000000000\n      dup2\n      mstore\n      0x04\n      add\n      dup1\n      dup1\n      0x20\n      add\n      dup3\n      dup2\n      sub\n      dup3\n      mstore\n      dup4\n      dup2\n      dup2\n      mload\n      dup2\n      mstore\n      0x20\n      add\n      swap2\n      pop\n      dup1\n      mload\n      swap1\n      0x20\n      add\n      swap1\n      dup1\n      dup4\n      dup4\n      0x00\n    tag_55:\n      dup4\n      dup2\n      lt\n      iszero\n      tag_57\n      jumpi\n      dup1\n      dup3\n      add\n      mload\n      dup2\n      dup5\n      add\n      mstore\n      0x20\n      dup2\n      add\n      swap1\n      pop\n      jump(tag_55)\n    tag_57:\n      pop\n      pop\n      pop\n      pop\n      swap1\n      pop\n      swap1\n      dup2\n      add\n      swap1\n      0x1f\n      and\n      dup1\n      iszero\n      tag_58\n      jumpi\n      dup1\n      dup3\n      sub\n      dup1\n      mload\n      0x01\n      dup4\n      0x20\n      sub\n      0x0100\n      exp\n      sub\n      not\n      and\n      dup2\n      mstore\n      0x20\n      add\n      swap2\n      pop\n    tag_58:\n      pop\n      swap3\n      pop\n      pop\n      pop\n      mload(0x40)\n      dup1\n      swap2\n      sub\n      swap1\n      revert\n    tag_54:\n      pop\n        /* \"SafeMath.sol\":3888:3897   */\n      0x00\n        /* \"SafeMath.sol\":3904:3905   */\n      dup4\n        /* \"SafeMath.sol\":3900:3901   */\n      dup6\n        /* \"SafeMath.sol\":3900:3905   */\n      dup2\n      tag_59\n      jumpi\n      invalid\n    tag_59:\n      div\n        /* \"SafeMath.sol\":3888:3905   */\n      swap1\n      pop\n        /* \"SafeMath.sol\":4009:4010   */\n      dup1\n        /* \"SafeMath.sol\":4002:4010   */\n      swap2\n      pop\n      pop\n        /* \"SafeMath.sol\":3679:4017   */\n      swap4\n      swap3\n      pop\n      pop\n      pop\n      jump\t// out\n    stop\n    data_9113bb53c2876a3805b2c9242029423fc540a728243ce887ab24c82cf119fba3 536166654d6174683a206d756c7469706c69636174696f6e206f766572666c6f77\n\n    auxdata: 0xa2646970667358221220f0ea6183ed0c0dfc9156efafb9ee0b2e122ad50244d578d805cd851e0ca29e8a64736f6c63430007020033\n}\n",
    "bytecode": {
      "linkReferences": {},
      "object": "608060405234801561001057600080fd5b506105ca806100206000396000f3fe608060405234801561001057600080fd5b50600436106100575760003560e01c8063771602f71461005c5780637ae2b5c7146100a8578063a391c15b146100f4578063c8a4ac9c14610140578063de2927891461018c575b600080fd5b6100926004803603604081101561007257600080fd5b8101908080359060200190929190803590602001909291905050506101aa565b6040518082815260200191505060405180910390f35b6100de600480360360408110156100be57600080fd5b8101908080359060200190929190803590602001909291905050506101d0565b6040518082815260200191505060405180910390f35b61012a6004803603604081101561010a57600080fd5b8101908080359060200190929190803590602001909291905050506101f6565b6040518082815260200191505060405180910390f35b6101766004803603604081101561015657600080fd5b81019080803590602001909291908035906020019092919050505061021c565b6040518082815260200191505060405180910390f35b610194610242565b6040518082815260200191505060405180910390f35b60006101bf828461024b90919063ffffffff16565b600081905550600054905092915050565b60006101e582846102d390919063ffffffff16565b600081905550600054905092915050565b600061020b828461031d90919063ffffffff16565b600081905550600054905092915050565b6000610231828461036790919063ffffffff16565b600081905550600054905092915050565b60008054905090565b6000808284019050838110156102c9576040517f08c379a000000000000000000000000000000000000000000000000000000000815260040180806020018281038252601b8152602001807f536166654d6174683a206164646974696f6e206f766572666c6f77000000000081525060200191505060405180910390fd5b8091505092915050565b600061031583836040518060400160405280601e81526020017f536166654d6174683a207375627472616374696f6e206f766572666c6f7700008152506103ed565b905092915050565b600061035f83836040518060400160405280601a81526020017f536166654d6174683a206469766973696f6e206279207a65726f0000000000008152506104ad565b905092915050565b60008083141561037a57600090506103e7565b600082840290508284828161038b57fe5b04146103e2576040517f08c379a00000000000000000000000000000000000000000000000000000000081526004018080602001828103825260218152602001806105746021913960400191505060405180910390fd5b809150505b92915050565b600083831115829061049a576040517f08c379a00000000000000000000000000000000000000000000000000000000081526004018080602001828103825283818151815260200191508051906020019080838360005b8381101561045f578082015181840152602081019050610444565b50505050905090810190601f16801561048c5780820380516001836020036101000a031916815260200191505b509250505060405180910390fd5b5060008385039050809150509392505050565b60008083118290610559576040517f08c379a00000000000000000000000000000000000000000000000000000000081526004018080602001828103825283818151815260200191508051906020019080838360005b8381101561051e578082015181840152602081019050610503565b50505050905090810190601f16801561054b5780820380516001836020036101000a031916815260200191505b509250505060405180910390fd5b50600083858161056557fe5b04905080915050939250505056fe536166654d6174683a206d756c7469706c69636174696f6e206f766572666c6f77a2646970667358221220f0ea6183ed0c0dfc9156efafb9ee0b2e122ad50244d578d805cd851e0ca29e8a64736f6c63430007020033",
      "opcodes": "PUSH1 0x80 PUSH1 0x40 MSTORE CALLVALUE DUP1 ISZERO PUSH2 0x10 JUMPI PUSH1 0x0 DUP1 REVERT JUMPDEST POP PUSH2 0x5CA DUP1 PUSH2 0x20 PUSH1 0x0 CODECOPY PUSH1 0x0 RETURN INVALID PUSH1 0x80 PUSH1 0x40 MSTORE CALLVALUE DUP1 ISZERO PUSH2 0x10 JUMPI PUSH1 0x0 DUP1 REVERT JUMPDEST POP PUSH1 0x4 CALLDATASIZE LT PUSH2 0x57 JUMPI PUSH1 0x0 CALLDATALOAD PUSH1 0xE0 SHR DUP1 PUSH4 0x771602F7 EQ PUSH2 0x5C JUMPI DUP1 PUSH4 0x7AE2B5C7 EQ PUSH2 0xA8 JUMPI DUP1 PUSH4 0xA391C15B EQ PUSH2 0xF4 JUMPI DUP1 PUSH4 0xC8A4AC9C EQ PUSH2 0x140 JUMPI DUP1 PUSH4 0xDE292789 EQ PUSH2 0x18C JUMPI JUMPDEST PUSH1 0x0 DUP1 REVERT JUMPDEST PUSH2 0x92 PUSH1 0x4 DUP1 CALLDATASIZE SUB PUSH1 0x40 DUP2 LT ISZERO PUSH2 0x72 JUMPI PUSH1 0x0 DUP1 REVERT JUMPDEST DUP2 ADD SWAP1 DUP1 DUP1 CALLDATALOAD SWAP1 PUSH1 0x20 ADD SWAP1 SWAP3 SWAP2 SWAP1 DUP1 CALLDATALOAD SWAP1 PUSH1 0x20 ADD SWAP1 SWAP3 SWAP2 SWAP1 POP POP POP PUSH2 0x1AA JUMP JUMPDEST PUSH1 0x40 MLOAD DUP1 DUP3 DUP2 MSTORE PUSH1 0x20 ADD SWAP2 POP POP PUSH1 0x40 MLOAD DUP1 SWAP2 SUB SWAP1 RETURN JUMPDEST PUSH2 0xDE PUSH1 0x4 DUP1 CALLDATASIZE SUB PUSH1 0x40 DUP2 LT ISZERO PUSH2 0xBE JUMPI PUSH1 0x0 DUP1 REVERT JUMPDEST DUP2 ADD SWAP1 DUP1 DUP1 CALLDATALOAD SWAP1 PUSH1 0x20 ADD SWAP1 SWAP3 SWAP2 SWAP1 DUP1 CALLDATALOAD SWAP1 PUSH1 0x20 ADD SWAP1 SWAP3 SWAP2 SWAP1 POP POP POP PUSH2 0x1D0 JUMP JUMPDEST PUSH1 0x40 MLOAD DUP1 DUP3 DUP2 MSTORE PUSH1 0x20 ADD SWAP2 POP POP PUSH1 0x40 MLOAD DUP1 SWAP2 SUB SWAP1 RETURN JUMPDEST PUSH2 0x12A PUSH1 0x4 DUP1 CALLDATASIZE SUB PUSH1 0x40 DUP2 LT ISZERO PUSH2 0x10A JUMPI PUSH1 0x0 DUP1 REVERT JUMPDEST DUP2 ADD SWAP1 DUP1 DUP1 CALLDATALOAD SWAP1 PUSH1 0x20 ADD SWAP1 SWAP3 SWAP2 SWAP1 DUP1 CALLDATALOAD SWAP1 PUSH1 0x20 ADD SWAP1 SWAP3 SWAP2 SWAP1 POP POP POP PUSH2 0x1F6 JUMP JUMPDEST PUSH1 0x40 MLOAD DUP1 DUP3 DUP2 MSTORE PUSH1 0x20 ADD SWAP2 POP POP PUSH1 0x40 MLOAD DUP1 SWAP2 SUB SWAP1 RETURN JUMPDEST PUSH2 0x176 PUSH1 0x4 DUP1 CALLDATASIZE SUB PUSH1 0x40 DUP2 LT ISZERO PUSH2 0x156 JUMPI PUSH1 0x0 DUP1 REVERT JUMPDEST DUP2 ADD SWAP1 DUP1 DUP1 CALLDATALOAD SWAP1 PUSH1 0x20 ADD SWAP1 SWAP3 SWAP2 SWAP1 DUP1 CALLDATALOAD SWAP1 PUSH1 0x20 ADD SWAP1 SWAP3 SWAP2 SWAP1 POP POP POP PUSH2 0x21C JUMP JUMPDEST PUSH1 0x40 MLOAD DUP1 DUP3 DUP2 MSTORE PUSH1 0x20 ADD SWAP2 POP POP PUSH1 0x40 MLOAD DUP1 SWAP2 SUB SWAP1 RETURN JUMPDEST PUSH2 0x194 PUSH2 0x242 JUMP JUMPDEST PUSH1 0x40 MLOAD DUP1 DUP3 DUP2 MSTORE PUSH1 0x20 ADD SWAP2 POP POP PUSH1 0x40 MLOAD DUP1 SWAP2 SUB SWAP1 RETURN JUMPDEST PUSH1 0x0 PUSH2 0x1BF DUP3 DUP5 PUSH2 0x24B SWAP1 SWAP2 SWAP1 PUSH4 0xFFFFFFFF AND JUMP JUMPDEST PUSH1 0x0 DUP2 SWAP1 SSTORE POP PUSH1 0x0 SLOAD SWAP1 POP SWAP3 SWAP2 POP POP JUMP JUMPDEST PUSH1 0x0 PUSH2 0x1E5 DUP3 DUP5 PUSH2 0x2D3 SWAP1 SWAP2 SWAP1 PUSH4 0xFFFFFFFF AND JUMP JUMPDEST PUSH1 0x0 DUP2 SWAP1 SSTORE POP PUSH1 0x0 SLOAD SWAP1 POP SWAP3 SWAP2 POP POP JUMP JUMPDEST PUSH1 0x0 PUSH2 0x20B DUP3 DUP5 PUSH2 0x31D SWAP1 SWAP2 SWAP1 PUSH4 0xFFFFFFFF AND JUMP JUMPDEST PUSH1 0x0 DUP2 SWAP1 SSTORE POP PUSH1 0x0 SLOAD SWAP1 POP SWAP3 SWAP2 POP POP JUMP JUMPDEST PUSH1 0x0 PUSH2 0x231 DUP3 DUP5 PUSH2 0x367 SWAP1 SWAP2 SWAP1 PUSH4 0xFFFFFFFF AND JUMP JUMPDEST PUSH1 0x0 DUP2 SWAP1 SSTORE POP PUSH1 0x0 SLOAD SWAP1 POP SWAP3 SWAP2 POP POP JUMP JUMPDEST PUSH1 0x0 DUP1 SLOAD SWAP1 POP SWAP1 JUMP JUMPDEST PUSH1 0x0 DUP1 DUP3 DUP5 ADD SWAP1 POP DUP4 DUP2 LT ISZERO PUSH2 0x2C9 JUMPI PUSH1 0x40 MLOAD PUSH32 0x8C379A000000000000000000000000000000000000000000000000000000000 DUP2 MSTORE PUSH1 0x4 ADD DUP1 DUP1 PUSH1 0x20 ADD DUP3 DUP2 SUB DUP3 MSTORE PUSH1 0x1B DUP2 MSTORE PUSH1 0x20 ADD DUP1 PUSH32 0x536166654D6174683A206164646974696F6E206F766572666C6F770000000000 DUP2 MSTORE POP PUSH1 0x20 ADD SWAP2 POP POP PUSH1 0x40 MLOAD DUP1 SWAP2 SUB SWAP1 REVERT JUMPDEST DUP1 SWAP2 POP POP SWAP3 SWAP2 POP POP JUMP JUMPDEST PUSH1 0x0 PUSH2 0x315 DUP4 DUP4 PUSH1 0x40 MLOAD DUP1 PUSH1 0x40 ADD PUSH1 0x40 MSTORE DUP1 PUSH1 0x1E DUP2 MSTORE PUSH1 0x20 ADD PUSH32 0x536166654D6174683A207375627472616374696F6E206F766572666C6F770000 DUP2 MSTORE POP PUSH2 0x3ED JUMP JUMPDEST SWAP1 POP SWAP3 SWAP2 POP POP JUMP JUMPDEST PUSH1 0x0 PUSH2 0x35F DUP4 DUP4 PUSH1 0x40 MLOAD DUP1 PUSH1 0x40 ADD PUSH1 0x40 MSTORE DUP1 PUSH1 0x1A DUP2 MSTORE PUSH1 0x20 ADD PUSH32 0x536166654D6174683A206469766973696F6E206279207A65726F000000000000 DUP2 MSTORE POP PUSH2 0x4AD JUMP JUMPDEST SWAP1 POP SWAP3 SWAP2 POP POP JUMP JUMPDEST PUSH1 0x0 DUP1 DUP4 EQ ISZERO PUSH2 0x37A JUMPI PUSH1 0x0 SWAP1 POP PUSH2 0x3E7 JUMP JUMPDEST PUSH1 0x0 DUP3 DUP5 MUL SWAP1 POP DUP3 DUP5 DUP3 DUP2 PUSH2 0x38B JUMPI INVALID JUMPDEST DIV EQ PUSH2 0x3E2 JUMPI PUSH1 0x40 MLOAD PUSH32 0x8C379A000000000000000000000000000000000000000000000000000000000 DUP2 MSTORE PUSH1 0x4 ADD DUP1 DUP1 PUSH1 0x20 ADD DUP3 DUP2 SUB DUP3 MSTORE PUSH1 0x21 DUP2 MSTORE PUSH1 0x20 ADD DUP1 PUSH2 0x574 PUSH1 0x21 SWAP2 CODECOPY PUSH1 0x40 ADD SWAP2 POP POP PUSH1 0x40 MLOAD DUP1 SWAP2 SUB SWAP1 REVERT JUMPDEST DUP1 SWAP2 POP POP JUMPDEST SWAP3 SWAP2 POP POP JUMP JUMPDEST PUSH1 0x0 DUP4 DUP4 GT ISZERO DUP3 SWAP1 PUSH2 0x49A JUMPI PUSH1 0x40 MLOAD PUSH32 0x8C379A000000000000000000000000000000000000000000000000000000000 DUP2 MSTORE PUSH1 0x4 ADD DUP1 DUP1 PUSH1 0x20 ADD DUP3 DUP2 SUB DUP3 MSTORE DUP4 DUP2 DUP2 MLOAD DUP2 MSTORE PUSH1 0x20 ADD SWAP2 POP DUP1 MLOAD SWAP1 PUSH1 0x20 ADD SWAP1 DUP1 DUP4 DUP4 PUSH1 0x0 JUMPDEST DUP4 DUP2 LT ISZERO PUSH2 0x45F JUMPI DUP1 DUP3 ADD MLOAD DUP2 DUP5 ADD MSTORE PUSH1 0x20 DUP2 ADD SWAP1 POP PUSH2 0x444 JUMP JUMPDEST POP POP POP POP SWAP1 POP SWAP1 DUP2 ADD SWAP1 PUSH1 0x1F AND DUP1 ISZERO PUSH2 0x48C JUMPI DUP1 DUP3 SUB DUP1 MLOAD PUSH1 0x1 DUP4 PUSH1 0x20 SUB PUSH2 0x100 EXP SUB NOT AND DUP2 MSTORE PUSH1 0x20 ADD SWAP2 POP JUMPDEST POP SWAP3 POP POP POP PUSH1 0x40 MLOAD DUP1 SWAP2 SUB SWAP1 REVERT JUMPDEST POP PUSH1 0x0 DUP4 DUP6 SUB SWAP1 POP DUP1 SWAP2 POP POP SWAP4 SWAP3 POP POP POP JUMP JUMPDEST PUSH1 0x0 DUP1 DUP4 GT DUP3 SWAP1 PUSH2 0x559 JUMPI PUSH1 0x40 MLOAD PUSH32 0x8C379A000000000000000000000000000000000000000000000000000000000 DUP2 MSTORE PUSH1 0x4 ADD DUP1 DUP1 PUSH1 0x20 ADD DUP3 DUP2 SUB DUP3 MSTORE DUP4 DUP2 DUP2 MLOAD DUP2 MSTORE PUSH1 0x20 ADD SWAP2 POP DUP1 MLOAD SWAP1 PUSH1 0x20 ADD SWAP1 DUP1 DUP4 DUP4 PUSH1 0x0 JUMPDEST DUP4 DUP2 LT ISZERO PUSH2 0x51E JUMPI DUP1 DUP3 ADD MLOAD DUP2 DUP5 ADD MSTORE PUSH1 0x20 DUP2 ADD SWAP1 POP PUSH2 0x503 JUMP JUMPDEST POP POP POP POP SWAP1 POP SWAP1 DUP2 ADD SWAP1 PUSH1 0x1F AND DUP1 ISZERO PUSH2 0x54B JUMPI DUP1 DUP3 SUB DUP1 MLOAD PUSH1 0x1 DUP4 PUSH1 0x20 SUB PUSH2 0x100 EXP SUB NOT AND DUP2 MSTORE PUSH1 0x20 ADD SWAP2 POP JUMPDEST POP SWAP3 POP POP POP PUSH1 0x40 MLOAD DUP1 SWAP2 SUB SWAP1 REVERT JUMPDEST POP PUSH1 0x0 DUP4 DUP6 DUP2 PUSH2 0x565 JUMPI INVALID JUMPDEST DIV SWAP1 POP DUP1 SWAP2 POP POP SWAP4 SWAP3 POP POP POP JUMP INVALID MSTORE8 PUSH2 0x6665 0x4D PUSH2 0x7468 GASPRICE KECCAK256 PUSH14 0x756C7469706C69636174696F6E20 PUSH16 0x766572666C6F77A26469706673582212 KECCAK256 CREATE 0xEA PUSH2 0x83ED 0xC 0xD 0xFC SWAP2 JUMP 0xEF 0xAF 0xB9 0xEE SIGNEXTEND 0x2E SLT 0x2A 0xD5 MUL DIFFICULTY 0xD5 PUSH25 0xD805CD851E0CA29E8A64736F6C634300070200330000000000 "
    },
    "gasEstimates": {
      "creation": {
        "codeDepositCost": "296400",
        "executionCost": "337",
        "totalCost": "296737"
      },
      "external": {
        "add(uint256,uint256)": "infinite",
        "div(uint256,uint256)": "infinite",
        "getResult()": "1079",
        "min(uint256,uint256)": "infinite",
        "mul(uint256,uint256)": "infinite"
      }
    },
    "methodIdentifiers": {
      "add(uint256,uint256)": "771602f7",
      "div(uint256,uint256)": "a391c15b",
      "getResult()": "de292789",
      "min(uint256,uint256)": "7ae2b5c7",
      "mul(uint256,uint256)": "c8a4ac9c"
    }
  },
  "storageLayout": {
    "storage": [
      {
        "astId": 8,
        "contract": "Storage.sol:Storage",
        "label": "result",
        "offset": 0,
        "slot": "0",
        "type": "t_uint256"
      }
    ],
    "types": {
      "t_uint256": {
        "encoding": "inplace",
        "label": "uint256",
        "numberOfBytes": "32"
      }
    }
  },
  "userdoc": {
    "kind": "user",
    "methods": {},
    "version": 1
  }
}